{
  "_format": "hh-sol-artifact-1",
  "contractName": "VotingSystem",
  "sourceName": "contracts/Lock.sol",
  "abi": [
    {
      "inputs": [
        {
          "internalType": "address[]",
          "name": "_admins",
          "type": "address[]"
        }
      ],
      "stateMutability": "nonpayable",
      "type": "constructor"
    },
    {
      "inputs": [
        {
          "internalType": "uint256",
          "name": "_electionId",
          "type": "uint256"
        },
        {
          "internalType": "string",
          "name": "_name",
          "type": "string"
        }
      ],
      "name": "addCandidate",
      "outputs": [],
      "stateMutability": "nonpayable",
      "type": "function"
    },
    {
      "inputs": [
        {
          "internalType": "uint256",
          "name": "",
          "type": "uint256"
        }
      ],
      "name": "admins",
      "outputs": [
        {
          "internalType": "address",
          "name": "",
          "type": "address"
        }
      ],
      "stateMutability": "view",
      "type": "function"
    },
    {
      "inputs": [
        {
          "internalType": "string",
          "name": "_post",
          "type": "string"
        },
        {
          "internalType": "uint256",
          "name": "_startTime",
          "type": "uint256"
        },
        {
          "internalType": "uint256",
          "name": "_endTime",
          "type": "uint256"
        }
      ],
      "name": "createElection",
      "outputs": [],
      "stateMutability": "nonpayable",
      "type": "function"
    },
    {
      "inputs": [],
      "name": "electionCount",
      "outputs": [
        {
          "internalType": "uint256",
          "name": "",
          "type": "uint256"
        }
      ],
      "stateMutability": "view",
      "type": "function"
    },
    {
      "inputs": [
        {
          "internalType": "uint256",
          "name": "",
          "type": "uint256"
        }
      ],
      "name": "elections",
      "outputs": [
        {
          "internalType": "uint256",
          "name": "id",
          "type": "uint256"
        },
        {
          "internalType": "string",
          "name": "post",
          "type": "string"
        },
        {
          "internalType": "bool",
          "name": "isActive",
          "type": "bool"
        },
        {
          "internalType": "uint256",
          "name": "startTime",
          "type": "uint256"
        },
        {
          "internalType": "uint256",
          "name": "endTime",
          "type": "uint256"
        }
      ],
      "stateMutability": "view",
      "type": "function"
    },
    {
      "inputs": [
        {
          "internalType": "uint256",
          "name": "_electionId",
          "type": "uint256"
        }
      ],
      "name": "endElection",
      "outputs": [],
      "stateMutability": "nonpayable",
      "type": "function"
    },
    {
      "inputs": [
        {
          "internalType": "uint256",
          "name": "_electionId",
          "type": "uint256"
        }
      ],
      "name": "getCandidates",
      "outputs": [
        {
          "internalType": "string[]",
          "name": "",
          "type": "string[]"
        }
      ],
      "stateMutability": "view",
      "type": "function"
    },
    {
      "inputs": [
        {
          "internalType": "uint256",
          "name": "_electionId",
          "type": "uint256"
        }
      ],
      "name": "getResults",
      "outputs": [
        {
          "components": [
            {
              "internalType": "uint256",
              "name": "id",
              "type": "uint256"
            },
            {
              "internalType": "string",
              "name": "name",
              "type": "string"
            },
            {
              "internalType": "uint256",
              "name": "voteCount",
              "type": "uint256"
            }
          ],
          "internalType": "struct VotingSystem.Candidate[]",
          "name": "",
          "type": "tuple[]"
        }
      ],
      "stateMutability": "view",
      "type": "function"
    },
    {
      "inputs": [
        {
          "internalType": "uint256",
          "name": "_electionId",
          "type": "uint256"
        }
      ],
      "name": "startElection",
      "outputs": [],
      "stateMutability": "nonpayable",
      "type": "function"
    },
    {
      "inputs": [
        {
          "internalType": "uint256",
          "name": "_electionId",
          "type": "uint256"
        },
        {
          "internalType": "uint256",
          "name": "_candidateId",
          "type": "uint256"
        }
      ],
      "name": "vote",
      "outputs": [],
      "stateMutability": "nonpayable",
      "type": "function"
    }
  ],
  "bytecode": "0x608060405234801561001057600080fd5b506040516127a03803806127a0833981810160405281019061003291906102fd565b6000339080600181540180825580915050600190039060005260206000200160009091909190916101000a81548173ffffffffffffffffffffffffffffffffffffffff021916908373ffffffffffffffffffffffffffffffffffffffff16021790555060005b815181101561012b5760008282815181106100b6576100b5610346565b5b60200260200101519080600181540180825580915050600190039060005260206000200160009091909190916101000a81548173ffffffffffffffffffffffffffffffffffffffff021916908373ffffffffffffffffffffffffffffffffffffffff1602179055508080600101915050610098565b5050610375565b6000604051905090565b600080fd5b600080fd5b600080fd5b6000601f19601f8301169050919050565b7f4e487b7100000000000000000000000000000000000000000000000000000000600052604160045260246000fd5b6101948261014b565b810181811067ffffffffffffffff821117156101b3576101b261015c565b5b80604052505050565b60006101c6610132565b90506101d2828261018b565b919050565b600067ffffffffffffffff8211156101f2576101f161015c565b5b602082029050602081019050919050565b600080fd5b600073ffffffffffffffffffffffffffffffffffffffff82169050919050565b600061023382610208565b9050919050565b61024381610228565b811461024e57600080fd5b50565b6000815190506102608161023a565b92915050565b6000610279610274846101d7565b6101bc565b9050808382526020820190506020840283018581111561029c5761029b610203565b5b835b818110156102c557806102b18882610251565b84526020840193505060208101905061029e565b5050509392505050565b600082601f8301126102e4576102e3610146565b5b81516102f4848260208601610266565b91505092915050565b6000602082840312156103135761031261013c565b5b600082015167ffffffffffffffff81111561033157610330610141565b5b61033d848285016102cf565b91505092915050565b7f4e487b7100000000000000000000000000000000000000000000000000000000600052603260045260246000fd5b61241c806103846000396000f3fe608060405234801561001057600080fd5b506004361061009e5760003560e01c806381a60c0d1161006657806381a60c0d1461016f578063997d28301461019f5780639c98bcbb146101bd578063b384abef146101d9578063f49a7a17146101f55761009e565b806314bfd6d0146100a35780631750a3d0146100d35780633e39a7a5146100ef5780635e6fef011461011f5780636d32dc4b14610153575b600080fd5b6100bd60048036038101906100b89190611255565b610211565b6040516100ca91906112c3565b60405180910390f35b6100ed60048036038101906100e89190611424565b610250565b005b61010960048036038101906101049190611255565b61046e565b60405161011691906115c1565b60405180910390f35b61013960048036038101906101349190611255565b61062a565b60405161014a959493929190611657565b60405180910390f35b61016d60048036038101906101689190611255565b6106f5565b005b61018960048036038101906101849190611255565b610941565b60405161019691906117d2565b60405180910390f35b6101a7610b4e565b6040516101b491906117f4565b60405180910390f35b6101d760048036038101906101d29190611255565b610b54565b005b6101f360048036038101906101ee919061180f565b610d58565b005b61020f600480360381019061020a919061184f565b611023565b005b6000818154811061022157600080fd5b906000526020600020016000915054906101000a900473ffffffffffffffffffffffffffffffffffffffff1681565b6000805b6000805490508110156102e85760008181548110610275576102746118be565b5b9060005260206000200160009054906101000a900473ffffffffffffffffffffffffffffffffffffffff1673ffffffffffffffffffffffffffffffffffffffff163373ffffffffffffffffffffffffffffffffffffffff16036102db57600191506102e8565b8080600101915050610254565b506001151581151514610330576040517f08c379a000000000000000000000000000000000000000000000000000000000815260040161032790611939565b60405180910390fd5b8260008110158015610343575060025481105b610382576040517f08c379a0000000000000000000000000000000000000000000000000000000008152600401610379906119a5565b60405180910390fd5b60006001600086815260200190815260200160002090508060020160009054906101000a900460ff16156103eb576040517f08c379a00000000000000000000000000000000000000000000000000000000081526004016103e290611a37565b60405180910390fd5b806005016040518060600160405280836005018054905081526020018681526020016000815250908060018154018082558091505060019003906000526020600020906003020160009091909190915060008201518160000155602082015181600101908161045a9190611c63565b506040820151816002015550505050505050565b60608160008110158015610483575060025481105b6104c2576040517f08c379a00000000000000000000000000000000000000000000000000000000081526004016104b9906119a5565b60405180910390fd5b600060016000858152602001908152602001600020905060008160050180549050905060008167ffffffffffffffff811115610501576105006112f9565b5b60405190808252806020026020018201604052801561053457816020015b606081526020019060019003908161051f5790505b50905060005b8281101561061d57836005018181548110610558576105576118be565b5b9060005260206000209060030201600101805461057490611a86565b80601f01602080910402602001604051908101604052809291908181526020018280546105a090611a86565b80156105ed5780601f106105c2576101008083540402835291602001916105ed565b820191906000526020600020905b8154815290600101906020018083116105d057829003601f168201915b5050505050828281518110610605576106046118be565b5b6020026020010181905250808060010191505061053a565b5080945050505050919050565b600160205280600052604060002060009150905080600001549080600101805461065390611a86565b80601f016020809104026020016040519081016040528092919081815260200182805461067f90611a86565b80156106cc5780601f106106a1576101008083540402835291602001916106cc565b820191906000526020600020905b8154815290600101906020018083116106af57829003601f168201915b5050505050908060020160009054906101000a900460ff16908060030154908060040154905085565b6000805b60008054905081101561078d576000818154811061071a576107196118be565b5b9060005260206000200160009054906101000a900473ffffffffffffffffffffffffffffffffffffffff1673ffffffffffffffffffffffffffffffffffffffff163373ffffffffffffffffffffffffffffffffffffffff1603610780576001915061078d565b80806001019150506106f9565b5060011515811515146107d5576040517f08c379a00000000000000000000000000000000000000000000000000000000081526004016107cc90611939565b60405180910390fd5b81600081101580156107e8575060025481105b610827576040517f08c379a000000000000000000000000000000000000000000000000000000000815260040161081e906119a5565b60405180910390fd5b60006001600085815260200190815260200160002090508060020160009054906101000a900460ff1615610890576040517f08c379a000000000000000000000000000000000000000000000000000000000815260040161088790611d81565b60405180910390fd5b80600301544210156108d7576040517f08c379a00000000000000000000000000000000000000000000000000000000081526004016108ce90611e13565b60405180910390fd5b806004015442111561091e576040517f08c379a000000000000000000000000000000000000000000000000000000000815260040161091590611e7f565b60405180910390fd5b60018160020160006101000a81548160ff02191690831515021790555050505050565b60608160008110158015610956575060025481105b610995576040517f08c379a000000000000000000000000000000000000000000000000000000000815260040161098c906119a5565b60405180910390fd5b60006001600085815260200190815260200160002090508060020160009054906101000a900460ff16156109fe576040517f08c379a00000000000000000000000000000000000000000000000000000000081526004016109f590611eeb565b60405180910390fd5b8060040154421015610a45576040517f08c379a0000000000000000000000000000000000000000000000000000000008152600401610a3c90611f7d565b60405180910390fd5b80600501805480602002602001604051908101604052809291908181526020016000905b82821015610b41578382906000526020600020906003020160405180606001604052908160008201548152602001600182018054610aa690611a86565b80601f0160208091040260200160405190810160405280929190818152602001828054610ad290611a86565b8015610b1f5780601f10610af457610100808354040283529160200191610b1f565b820191906000526020600020905b815481529060010190602001808311610b0257829003601f168201915b5050505050815260200160028201548152505081526020019060010190610a69565b5050505092505050919050565b60025481565b6000805b600080549050811015610bec5760008181548110610b7957610b786118be565b5b9060005260206000200160009054906101000a900473ffffffffffffffffffffffffffffffffffffffff1673ffffffffffffffffffffffffffffffffffffffff163373ffffffffffffffffffffffffffffffffffffffff1603610bdf5760019150610bec565b8080600101915050610b58565b506001151581151514610c34576040517f08c379a0000000000000000000000000000000000000000000000000000000008152600401610c2b90611939565b60405180910390fd5b8160008110158015610c47575060025481105b610c86576040517f08c379a0000000000000000000000000000000000000000000000000000000008152600401610c7d906119a5565b60405180910390fd5b60006001600085815260200190815260200160002090508060020160009054906101000a900460ff16610cee576040517f08c379a0000000000000000000000000000000000000000000000000000000008152600401610ce590611fe9565b60405180910390fd5b8060040154421015610d35576040517f08c379a0000000000000000000000000000000000000000000000000000000008152600401610d2c9061207b565b60405180910390fd5b60008160020160006101000a81548160ff02191690831515021790555050505050565b8160008110158015610d6b575060025481105b610daa576040517f08c379a0000000000000000000000000000000000000000000000000000000008152600401610da1906119a5565b60405180910390fd5b826001600082815260200190815260200160002060020160009054906101000a900460ff16610e0e576040517f08c379a0000000000000000000000000000000000000000000000000000000008152600401610e05906120e7565b60405180910390fd5b60016000828152602001908152602001600020600301544210158015610e4a575060016000828152602001908152602001600020600401544211155b610e89576040517f08c379a0000000000000000000000000000000000000000000000000000000008152600401610e8090612179565b60405180910390fd5b60006001600086815260200190815260200160002090508060060160003373ffffffffffffffffffffffffffffffffffffffff1673ffffffffffffffffffffffffffffffffffffffff16815260200190815260200160002060009054906101000a900460ff1615610f2f576040517f08c379a0000000000000000000000000000000000000000000000000000000008152600401610f26906121e5565b60405180910390fd5b60008410158015610f465750806005018054905084105b610f85576040517f08c379a0000000000000000000000000000000000000000000000000000000008152600401610f7c90612251565b60405180910390fd5b60018160060160003373ffffffffffffffffffffffffffffffffffffffff1673ffffffffffffffffffffffffffffffffffffffff16815260200190815260200160002060006101000a81548160ff021916908315150217905550806005018481548110610ff557610ff46118be565b5b90600052602060002090600302016002016000815480929190611017906122a0565b91905055505050505050565b6000805b6000805490508110156110bb5760008181548110611048576110476118be565b5b9060005260206000200160009054906101000a900473ffffffffffffffffffffffffffffffffffffffff1673ffffffffffffffffffffffffffffffffffffffff163373ffffffffffffffffffffffffffffffffffffffff16036110ae57600191506110bb565b8080600101915050611027565b506001151581151514611103576040517f08c379a00000000000000000000000000000000000000000000000000000000081526004016110fa90611939565b60405180910390fd5b6000600160006002548152602001908152602001600020905083831161115e576040517f08c379a00000000000000000000000000000000000000000000000000000000081526004016111559061235a565b60405180910390fd5b4284116111a0576040517f08c379a0000000000000000000000000000000000000000000000000000000008152600401611197906123c6565b60405180910390fd5b6002548160000181905550848160010190816111bc9190611c63565b5083816003018190555082816004018190555060008160020160006101000a81548160ff021916908315150217905550600260008154809291906111ff906122a0565b91905055505050505050565b6000604051905090565b600080fd5b600080fd5b6000819050919050565b6112328161121f565b811461123d57600080fd5b50565b60008135905061124f81611229565b92915050565b60006020828403121561126b5761126a611215565b5b600061127984828501611240565b91505092915050565b600073ffffffffffffffffffffffffffffffffffffffff82169050919050565b60006112ad82611282565b9050919050565b6112bd816112a2565b82525050565b60006020820190506112d860008301846112b4565b92915050565b600080fd5b600080fd5b6000601f19601f8301169050919050565b7f4e487b7100000000000000000000000000000000000000000000000000000000600052604160045260246000fd5b611331826112e8565b810181811067ffffffffffffffff821117156113505761134f6112f9565b5b80604052505050565b600061136361120b565b905061136f8282611328565b919050565b600067ffffffffffffffff82111561138f5761138e6112f9565b5b611398826112e8565b9050602081019050919050565b82818337600083830152505050565b60006113c76113c284611374565b611359565b9050828152602081018484840111156113e3576113e26112e3565b5b6113ee8482856113a5565b509392505050565b600082601f83011261140b5761140a6112de565b5b813561141b8482602086016113b4565b91505092915050565b6000806040838503121561143b5761143a611215565b5b600061144985828601611240565b925050602083013567ffffffffffffffff81111561146a5761146961121a565b5b611476858286016113f6565b9150509250929050565b600081519050919050565b600082825260208201905092915050565b6000819050602082019050919050565b600081519050919050565b600082825260208201905092915050565b60005b838110156114e65780820151818401526020810190506114cb565b60008484015250505050565b60006114fd826114ac565b61150781856114b7565b93506115178185602086016114c8565b611520816112e8565b840191505092915050565b600061153783836114f2565b905092915050565b6000602082019050919050565b600061155782611480565b611561818561148b565b9350836020820285016115738561149c565b8060005b858110156115af5784840389528151611590858261152b565b945061159b8361153f565b925060208a01995050600181019050611577565b50829750879550505050505092915050565b600060208201905081810360008301526115db818461154c565b905092915050565b6115ec8161121f565b82525050565b600082825260208201905092915050565b600061160e826114ac565b61161881856115f2565b93506116288185602086016114c8565b611631816112e8565b840191505092915050565b60008115159050919050565b6116518161163c565b82525050565b600060a08201905061166c60008301886115e3565b818103602083015261167e8187611603565b905061168d6040830186611648565b61169a60608301856115e3565b6116a760808301846115e3565b9695505050505050565b600081519050919050565b600082825260208201905092915050565b6000819050602082019050919050565b6116e68161121f565b82525050565b600060608301600083015161170460008601826116dd565b506020830151848203602086015261171c82826114f2565b915050604083015161173160408601826116dd565b508091505092915050565b600061174883836116ec565b905092915050565b6000602082019050919050565b6000611768826116b1565b61177281856116bc565b935083602082028501611784856116cd565b8060005b858110156117c057848403895281516117a1858261173c565b94506117ac83611750565b925060208a01995050600181019050611788565b50829750879550505050505092915050565b600060208201905081810360008301526117ec818461175d565b905092915050565b600060208201905061180960008301846115e3565b92915050565b6000806040838503121561182657611825611215565b5b600061183485828601611240565b925050602061184585828601611240565b9150509250929050565b60008060006060848603121561186857611867611215565b5b600084013567ffffffffffffffff8111156118865761188561121a565b5b611892868287016113f6565b93505060206118a386828701611240565b92505060406118b486828701611240565b9150509250925092565b7f4e487b7100000000000000000000000000000000000000000000000000000000600052603260045260246000fd5b7f4163636573732044656e69656400000000000000000000000000000000000000600082015250565b6000611923600d836115f2565b915061192e826118ed565b602082019050919050565b6000602082019050818103600083015261195281611916565b9050919050565b7f456c656374696f6e20646f6573206e6f74206578697374000000000000000000600082015250565b600061198f6017836115f2565b915061199a82611959565b602082019050919050565b600060208201905081810360008301526119be81611982565b9050919050565b7f43616e6e6f74206164642063616e64696461746573207768696c6520656c656360008201527f74696f6e20697320616374697665000000000000000000000000000000000000602082015250565b6000611a21602e836115f2565b9150611a2c826119c5565b604082019050919050565b60006020820190508181036000830152611a5081611a14565b9050919050565b7f4e487b7100000000000000000000000000000000000000000000000000000000600052602260045260246000fd5b60006002820490506001821680611a9e57607f821691505b602082108103611ab157611ab0611a57565b5b50919050565b60008190508160005260206000209050919050565b60006020601f8301049050919050565b600082821b905092915050565b600060088302611b197fffffffffffffffffffffffffffffffffffffffffffffffffffffffffffffffff82611adc565b611b238683611adc565b95508019841693508086168417925050509392505050565b6000819050919050565b6000611b60611b5b611b568461121f565b611b3b565b61121f565b9050919050565b6000819050919050565b611b7a83611b45565b611b8e611b8682611b67565b848454611ae9565b825550505050565b600090565b611ba3611b96565b611bae818484611b71565b505050565b5b81811015611bd257611bc7600082611b9b565b600181019050611bb4565b5050565b601f821115611c1757611be881611ab7565b611bf184611acc565b81016020851015611c00578190505b611c14611c0c85611acc565b830182611bb3565b50505b505050565b600082821c905092915050565b6000611c3a60001984600802611c1c565b1980831691505092915050565b6000611c538383611c29565b9150826002028217905092915050565b611c6c826114ac565b67ffffffffffffffff811115611c8557611c846112f9565b5b611c8f8254611a86565b611c9a828285611bd6565b600060209050601f831160018114611ccd5760008415611cbb578287015190505b611cc58582611c47565b865550611d2d565b601f198416611cdb86611ab7565b60005b82811015611d0357848901518255600182019150602085019450602081019050611cde565b86831015611d205784890151611d1c601f891682611c29565b8355505b6001600288020188555050505b505050505050565b7f456c656374696f6e20697320616c726561647920616374697665000000000000600082015250565b6000611d6b601a836115f2565b9150611d7682611d35565b602082019050919050565b60006020820190508181036000830152611d9a81611d5e565b9050919050565b7f456c656374696f6e2073746172742074696d6520686173206e6f74206265656e60008201527f2072656163686564000000000000000000000000000000000000000000000000602082015250565b6000611dfd6028836115f2565b9150611e0882611da1565b604082019050919050565b60006020820190508181036000830152611e2c81611df0565b9050919050565b7f456c656374696f6e2074696d65206672616d65206973206f7665720000000000600082015250565b6000611e69601b836115f2565b9150611e7482611e33565b602082019050919050565b60006020820190508181036000830152611e9881611e5c565b9050919050565b7f456c656374696f6e206973207374696c6c206163746976650000000000000000600082015250565b6000611ed56018836115f2565b9150611ee082611e9f565b602082019050919050565b60006020820190508181036000830152611f0481611ec8565b9050919050565b7f43616e6e6f742073686f7720726573756c7473206265666f726520656e64207460008201527f696d650000000000000000000000000000000000000000000000000000000000602082015250565b6000611f676023836115f2565b9150611f7282611f0b565b604082019050919050565b60006020820190508181036000830152611f9681611f5a565b9050919050565b7f456c656374696f6e20697320616c726561647920696e61637469766500000000600082015250565b6000611fd3601c836115f2565b9150611fde82611f9d565b602082019050919050565b6000602082019050818103600083015261200281611fc6565b9050919050565b7f456c656374696f6e20656e642074696d6520686173206e6f74206265656e207260008201527f6561636865640000000000000000000000000000000000000000000000000000602082015250565b60006120656026836115f2565b915061207082612009565b604082019050919050565b6000602082019050818103600083015261209481612058565b9050919050565b7f456c656374696f6e206973206e6f742061637469766500000000000000000000600082015250565b60006120d16016836115f2565b91506120dc8261209b565b602082019050919050565b60006020820190508181036000830152612100816120c4565b9050919050565b7f456c656374696f6e206973206e6f742077697468696e2074686520616374697660008201527f652074696d65206672616d650000000000000000000000000000000000000000602082015250565b6000612163602c836115f2565b915061216e82612107565b604082019050919050565b6000602082019050818103600083015261219281612156565b9050919050565b7f596f75206861766520616c726561647920766f74656400000000000000000000600082015250565b60006121cf6016836115f2565b91506121da82612199565b602082019050919050565b600060208201905081810360008301526121fe816121c2565b9050919050565b7f496e76616c69642043616e646964617465204964000000000000000000000000600082015250565b600061223b6014836115f2565b915061224682612205565b602082019050919050565b6000602082019050818103600083015261226a8161222e565b9050919050565b7f4e487b7100000000000000000000000000000000000000000000000000000000600052601160045260246000fd5b60006122ab8261121f565b91507fffffffffffffffffffffffffffffffffffffffffffffffffffffffffffffffff82036122dd576122dc612271565b5b600182019050919050565b7f456e642074696d65206d7573742062652061667465722073746172742074696d60008201527f6500000000000000000000000000000000000000000000000000000000000000602082015250565b60006123446021836115f2565b915061234f826122e8565b604082019050919050565b6000602082019050818103600083015261237381612337565b9050919050565b7f53746172742074696d65206d75737420626520696e2074686520667574757265600082015250565b60006123b06020836115f2565b91506123bb8261237a565b602082019050919050565b600060208201905081810360008301526123df816123a3565b905091905056fea2646970667358221220a2eeb9851439ab358112431703d48ea1be77dfda97c1816da022b845b3bb011564736f6c634300081c0033",
  "linkReferences": {},
  "deployedLinkReferences": {}
}